:020000040000FA
:020000002B5380
:020001002B547E
:020002002B577A
:020003002B5977
:020004002B5B74
:020005002B5C72
:020006002B5F6E
:020007002B626A
:020008002B6665
:020009002B6B5F
:02000A002B7059
:02000B002B7553
:02000C002B7B4C
:02000D002B8046
:02000E002B873E
:02000F002B8E36
:020010002B9330
:020011002B9E24
:020012002BA61B
:020013002BAF11
:020014002BB807
:020015002BC3FB
:020016002BCCF1
:020017002BD7E5
:020018002BE3D8
:020019002BEECC
:02001A002BFBBE
:02001B002C09AE
:02001C002C15A1
:02001D002C2095
:02001E002C3183
:02001F002C4073
:020020002C4D65
:020021002C5E53
:020022002C6C44
:020023002C7F30
:020024002C8F1F
:020025002CA10C
:020026002CB3F9
:020027002CC5E6
:020028002CD6D4
:020029002CEBBE
:02002A002CFFA9
:02002B002D1294
:02002C002D2580
:02002D002D3B69
:02002E002D4E55
:02002F002D673B
:020030002D7C25
:020031002D920E
:020032002DA6F9
:020033002DC0DE
:020034002DD5C8
:020035002DF0AC
:020036002E0694
:020037002E2277
:020038002E395F
:020039002E5443
:02003A002E6F27
:02003B002E890C
:02003C002EA3F1
:02003D002EBCD7
:02003E002ED9B9
:02003F002EF79A
:020040002F147B
:020041002F315D
:020042002F4D40
:020043002F6A22
:020044002F8803
:020045002FA5E5
:020046002FC5C4
:020047002FE3A5
:02004800300383
:02004900302362
:02004A00304440
:02004B00306221
:02004C003084FE
:02004D0030A2DF
:02004E0030C6BA
:02004F0030E897
:02005000310A73
:02005100312D4F
:0200520031512A
:02005300317208
:020054003194E5
:0200550031BBBD
:0200560031DA9D
:02005700320174
:0200580032264E
:02005900324B28
:02005A00326D05
:02005B003295DC
:02005C0032BCB4
:02005D0032E08F
:02005E00330568
:02005F00332E3E
:02006000335417
:02006100337AF0
:0200620033A2C7
:0200630033C99F
:0200640033F176
:0200650034164F
:02006600343F25
:020067003469FA
:020068003492D0
:0200690034BDA4
:02006A0034E17F
:02006B00350C52
:02006C00353726
:02006D003561FB
:02006E00358BD0
:02006F0035B3A7
:0200700035DF7A
:02007100360A4D
:02007200363422
:02007300365FF6
:02007400368ACA
:0200750036B69D
:0200760036E36F
:02007700370F41
:02007800373916
:020079003763EB
:02007A003791BC
:02007B0037BB91
:02007C0037E863
:02007D00381534
:02007E00384206
:02007F003870D7
:00000001ff
