:020000040000FA
:03000000000001FC
:030001001FD6AA5D
:030002001FAD51DE
:030003001F83FC5C
:030004001F5AAAD6
:030005001F315D4B
:030006001F0815BB
:030007001EDED129
:030008001EB5958D
:030009001E8C5FEB
:03000A001E633240
:03000B001E3A108A
:03000C001E10F7CC
:03000D001DE7EB01
:03000E001DBEEB29
:03000F001D95F745
:030010001D6D154E
:030011001D443C4F
:030012001D1B783B
:030013001CF2C319
:030014001CCA22E1
:030015001CA1919A
:030016001C79173B
:030017001C50B1C9
:030018001C285F42
:030019001C0026A2
:03001A001BD803ED
:03001B001BAFF820
:03001C001B880836
:03001D001B603530
:03001E001B387715
:03001F001B10D8DB
:030020001AE95A80
:030021001AC1F50C
:030022001A9AB275
:030023001A738BC2
:030024001A4C89EA
:030025001A25A6F3
:0300260019FEE6DA
:0300270019D84A9B
:0300280019B1D338
:03002900198B7FB1
:03002A0019655203
:03002B00193F4D2D
:03002C001919702F
:03002D0018F3B90C
:03002E0018CE30B9
:03002F0018A8CB43
:030030001883969C
:03003100185E8CCA
:030032001839B1C9
:030033001814FF9F
:0300340017F08042
:0300350017CC2CB9
:0300360017A80CFC
:0300370017841912
:0300380017605CF2
:03003900173CCEA3
:03003A001719751E
:03003B0016F65165
:03003C0016D36276
:03003D0016B0AA50
:03003E00168E25F6
:03003F00166BD766
:030040001649C29C
:030041001627E798
:0300420016064758
:0300430015E4E0E1
:0300440015C3B42D
:0300450015A2C43D
:0300460015820E12
:03004700156198A8
:0300480015415F00
:030049001521641A
:03004A001501A9F4
:03004B0014E2308C
:03004C0014C2F5E6
:03004D0014A3FFFA
:03004E00148546D0
:03004F001466D163
:030050001448A1B0
:03005100142AB4BA
:03005200140D0B7F
:0300530013EFABFD
:0300540013D29034
:0300550013B5B62A
:0300560013992CCF
:03005700137CE334
:030058001360E34F
:0300590013452E1E
:03005A001329C5A2
:03005B00130EA1E0
:03005C0012F3C8D4
:03005D0012D93F76
:03005E0012BF00CE
:03005F0012A509DE
:03006000128B639D
:0300610012720B0D
:030062001258FF32
:0300630012404206
:030064001227D58B
:03006500120FB9BE
:0300660011F7EAA5
:0300670011E06A3B
:0300680011C93D7E
:0300690011B25F72
:03006A00119BDA0D
:03006B001185A15B
:03006C00116FBA57
:03006D00115A28FD
:03006E001144E951
:03006F001130014C
:03007000111B6AF7
:030071001107274D
:0300720010F33C4C
:0300730010DFA5F6
:0300740010CC6449
:0300750010B97946
:0300760010A6E3EE
:030077001094A53D
:030078001082C033
:03007900107134CF
:03007A00105FFC18
:03007B00104F1F04
:03007C00103E989B
:03007D00102E6AD8
:03007E00101E95BC
:03007F00100F1946
:00000001ff
